:020000040800F2
:10000000281A002029020008DB3C0008DF3700081E
:10001000D93C0008F1060008A943000800000000D0
:10002000000000000000000000000000993F0008F0
:100030005308000800000000553E0008A5400008D5
:10004000430200084302000843020008430200087C
:10005000430200084302000843020008430200086C
:10006000430200084302000843020008DD070008BD
:10007000430200084302000843020008430200084C
:1000800043020008430200088304000843020008FA
:100090003507000843020008430200084302000835
:1000A00043020008430200087941000843020008A7
:1000B0004302000843020008000000004302000859
:1000C0004302000800000000000000004302000896
:1000D0000000000043020008430200084302000839
:1000E0004302000843020008000000000000000076
:1000F0000000000000000000000000000000000000
:1001000000000000000000000000000000000000EF
:100110000000000000000000430200084302000845
:1001200000000000000000000000000000000000CF
:1001300000000000000000000000000000000000BF
:1001400043020008430200080000000043020008C8
:10015000430200084302000843020008430200086B
:1001600043020008430200080000000000000000F5
:10017000000000000000000000000000000000007F
:10018000000000004302000800F002F800F03CF814
:100190000AA090E8000C82448344AAF10107DA45E2
:1001A00001D100F031F8AFF2090EBAE80F0013F0F8
:1001B000010F18BFFB1A43F001031847A4430000C6
:1001C000C4430000103A24BF78C878C1FAD8520757
:1001D00024BF30C830C144BF04680C6070470000C1
:1001E0000023002400250026103A28BF78C1FBD840
:1001F000520728BF30C148BF0B6070471FB504F0DD
:100200008DF91FBD10B510BD00F001F91146FFF7C3
:10021000F5FF04F039F900F01FF903B4FFF7F2FF1E
:1002200003BC00F027F9000009488047094800474F
:10023000FEE7FEE7FEE7FEE7FEE7FEE7FEE7FEE796
:10024000FEE7FEE704480549054A064B70470000F3
:100250002D4100088901000828050020281A0020E7
:10026000280A0020280A002053EA020C00F06980C6
:100270002DE9F04B4FF00006002B1FBFB3FA83F5BA
:1002800003FA05F424FA05F65E4012BF1643B2FAEB
:1002900082F502FA05F4C5F120051EBF22FA05FC1D
:1002A00044EA0C04203556EA044C4FEA144418BFC3
:1002B000641C4FF000084FF00009904271EB030CF2
:1002C00039D3002919BFB1FA81F701FA07F6B0FA5C
:1002D00080F700FA07F6C7F120071EBF20FA07FCD7
:1002E00046EA0C062037B6FBF4FCA7EB0507103FE7
:1002F00007F01F0BCBF120060CFA0BFB2CFA06F6CD
:1003000044BFB3460026202FA4BF5E464FF0000B2B
:100310005BEA060C08BF4FF0010B19EB0B09ABFBB6
:10032000027C48EB0608C01B06FB02CC0BFB03CC8F
:1003300071EB0C01C1E70B46024641464846BDE859
:10034000F08B13B54FF000004FF00001AFF30080C9
:10035000BDE81C40704710B5203AC0F00B80B1E8F2
:100360001850203AA0E81850B1E81850A0E81850EA
:10037000BFF4F5AF5FEA027C24BFB1E81850A0E8F3
:10038000185044BF18C918C0BDE810405FEA827C0D
:1003900024BF51F8043B40F8043B08BF7047D20724
:1003A00028BF31F8023B48BF11F8012B28BF20F8C5
:1003B000023B48BF00F8012B70474FF0000200B528
:1003C000134694469646203922BFA0E80C50A0E878
:1003D0000C50B1F12001BFF4F7AF090728BFA0E826
:1003E0000C5048BF0CC05DF804EB890028BF40F8F2
:1003F000042B08BF704748BF20F8022B11F0804F34
:1004000018BF00F8012B704770477047704775465A
:1004100000F02CF8AE4605006946534620F0070070
:10042000854618B020B5FFF70DFFBDE820404FF01E
:1004300000064FF000074FF000084FF0000B21F0CE
:100440000701AC46ACE8C009ACE8C009ACE8C0099B
:10045000ACE8C0098D46704710B50446AFF3008084
:100460002046BDE81040FFF7D8BE000000487047A6
:10047000C404002001491820ABBEFEE7260002009C
:10048000704770B54FF0A04420684FF060058006BB
:1004900003D5012000F0EAF82560D4F800018006B9
:1004A00003D5022000F0E2F8256070BD0146406AE5
:1004B000026C12F0500F03D0806B026B084610479D
:1004C000016C41F4007101640168C96811F4406F66
:1004D0000CD1417E51B9016C21F480710164016C31
:1004E000C90403D4016C41F00101016400F0D8BEDD
:1004F000406A016C41F040010164416C41F004012B
:10050000416400F0CFBE406A00F0CBBE10B51D4A7A
:100510001D4B9FED1E0ADFED1E0A002002EB80013D
:1005200033F8104091ED001A01EE904A401C21EE84
:10053000001AF8EE611AC0B2032801EEA01A81ED8C
:10054000001AEBD30F49104B00201031B3F1040314
:1005500001EB800233F8104092ED001A01EE904A50
:10056000401C21EE001AF8EE611AC0B2022801EE1A
:10057000A01A82ED001AEBD303487838816E491C2B
:10058000816610BDBC000020780000201E852B3F36
:10059000C3F5A83E70B504460068816801F0030108
:1005A00001292AD10168C90727D0816801F00D010E
:1005B000012914D1816841F0020181602168032082
:1005C000086001F0FDFD054613E000BF01F0F8FDF5
:1005D000401B02280DD920688068C00709D0206C14
:1005E00040F010002064606C40F001006064012065
:1005F00070BD20688068C007E8D1002070BD000091
:1006000070B504460068816801F00301012902D138
:100610000168C90725D18168134A114212D1816846
:1006200041F00101816001F0CBFD054614E000BFFF
:1006300001F0C6FD401B02280ED920680068C043A7
:10064000C00709D0206C40F010002064606C40F0BE
:1006500001006064012070BD20680068C043C007CD
:10066000E6D1002070BD00003F0000809FED1C0A15
:10067000DFED1C0A1C494FF0A042012817D00228C8
:1006800014D1D2F880010A1D80B21080174A92ED71
:10069000021A21EE001A00EE100AB8EE400A00EE2F
:1006A000201A82ED021A086F401C08677047D2F8C2
:1006B00080000D4A80B2921C10800C4A103A92EDD4
:1006C000031A21EE001A00EE100AB8EE400A00EEFE
:1006D000201A82ED031AC86E401CC86670470000DD
:1006E0001E852B3FC3F5A83E00000020CC00002053
:1006F000FEE700000D4810B5002101224161C0E96C
:1007000006124FF42053C0E90031C0E90231026201
:1007100001610146064801F045F8054801F08EFBED
:10072000BDE810400221024800F0C2BFD401002001
:1007300024030020014801F027B900002403002011
:1007400008B51F4A002100911E4B506C984203DAF5
:100750009FED1D0A82ED110A1C484FF498739FED1E
:100760001C0A036081600823C0E90313D2ED110A5B
:10077000134820EE800A8630BCEEC00A10EE103A14
:10078000037010EE103A9FED130A1B0A4370D2ED6E
:100790000F0A6B4620EE800ABCEEC00A10EE102A4B
:1007A000827010EE102A120AC270017141718171BB
:1007B000C17102460549084800F08CFF08BD0000E1
:1007C00000000020CDCC4C3DCDCC4C3DA400002001
:1007D000000000470000C8422403002009480168C7
:1007E000890703D501214160FFF790BE0168090721
:1007F00001D5082103E00168490701D504214160C2
:100800007047000000000240054A016811441422AC
:10081000B1FBF2F1890001640249C1637047000035
:10082000F8FFFDBF0000024030B590F840500124B1
:10083000AC40C56B6C60046863604368102B036850
:1008400003D099600068C26030BD9A600068C160E2
:1008500030BD704772B6FEE72F4A9FED301A304820
:1008600092ED020AA2F110019FED2E2AC0EE010ABC
:10087000B0EE000A20EE801A80ED081AD1ED031ABE
:10088000C1EE820ADFED281A60EE800AC0ED060A8A
:1008900091ED000A30EE610ADFED241A80EE212A84
:1008A00031EE600ADFED221A30EE610A80ED072A90
:1008B00080ED090AD1ED021A9FED1E0AC1EE802AD1
:1008C000C0ED022AD2ED001A81EE803A80ED033AA3
:1008D00091ED013AC3EE001AC0ED051AD2ED013ACE
:1008E00083EE803A80ED043A23EE200A80ED0F0A71
:1008F00021EE820A80ED100A22EE810A21EEA11A71
:1009000080ED0E0A9FED0C0AC1EE000A80EE801AFF
:1009100080ED111A70470000CC000020142EBA435D
:1009200000000020142E3A4300000045142EBA4265
:10093000CDCC4C3D0000DC423333AB412DE9F041DE
:10094000044690F83C00884601280AD0012584F826
:100950003C502046FFF71EFE06004FF0000703D074
:1009600037E00220BDE8F08125642068816821F02D
:1009700080418160B8F1010F04D12068816841F0A5
:10098000804181602068816841F00041816001F010
:1009900017FC054613E000BF01F012FC401B0A28BB
:1009A0000DD920688068002809DA206C20F0020048
:1009B00040F01000206484F83C700120D2E72068E9
:1009C00080680028E8DB206C20F0020040F0010085
:1009D000206484F83C703046C4E70000F0B5002382
:1009E00094B01D46009390F83C4002691E46012CCD
:1009F0000BD00124EE4F80F83C404AB18A69012AAD
:100A000006D0C66C3EB3826C36E0022014B0F0BD56
:100A10004A68012A05D0026C42F0200202640123D8
:100A200049E00A6A012A09D0D1F824C042EA0C023E
:100A3000D1F800C046EA0C26324302E00A6846EAD2
:100A40000222D0F800C0DCF84C603E401643CCF8DF
:100A50004C6082642FE0C0E912520A6A012A08D071
:100A6000D1F818C04E6AACF1010C46EA0C063243CC
:100A700001E08A69521E82640E7906EB460C02265A
:100A800006EB4C064FF01F0C0CFA06FC22EA0C0297
:100A9000D1F800C00CFA06FC42EA0C028264C66C73
:100AA000761EC66407D1D0F800C0DCF84C603E402A
:100AB0001643CCF84C600268966836071CD44E7F0B
:100AC00056B1D6688F7F26F4401646EA4756D66060
:100AD0000A7F012A0BD00FE08E7F0F7F760546EA52
:100AE0000756D76827F440173E43D66004E0026CEF
:100AF00042F02002026401230668B26812F00C0F73
:100B00004FF007027ED10F6A012FF76827F00077B8
:100B100004D0F7604E7F012E06D00AE091F81DC088
:100B200047EA4C67F76004E0036C43F0200303647A
:100B300001230E6807680A2E11D3D7F818C00A3EA1
:100B400006EB460602FA06FE2CEA0E0CD1F808E087
:100B50000EFA06FE4CEA0E0CC7F818C00FE0D7F8E4
:100B600014C006EB460602FA06FE2CEA0E0CD1F87B
:100B700008E00EFA06FE4CEA0E0CC7F814C0066830
:100B80004F69D6F80CC0D1F810E0CCF3C10C4FEA95
:100B90004C0C07FA0CF7DFF81CC2BEF1010F44D071
:100BA000BEF1020F4FD0BEF1030F5AD0BEF1040FB9
:100BB00065D0376E91F800C007F0F847B7EB8C6F3F
:100BC00003D1376E27F0004737660668776E91F8D5
:100BD00000C007F0F847B7EB8C6F03D1776E27F0B2
:100BE000004777660668B76E91F800C007F0F847CF
:100BF000B7EB8C6F03D1B76E27F00047B766066876
:100C0000F76E00E00AE091F800C007F0F847B7EB94
:100C10008C6F03D1F76E27F00047F7660668B76858
:100C200007F00307012F3AD136E0D6F860E00EEA6C
:100C30000C0E91F800C047EA8C674EEA070E4EF0A2
:100C400000473766EAE7D6F864E00EEA0C0E91F842
:100C500000C047EA8C674EEA070E4EF00047776601
:100C6000DCE7D6F868E00EEA0C0E91F800C047EA1F
:100C70008C674EEA070E4EF00047B766CEE7D6F80F
:100C80006CE00EEA0C0E91F800C047EA8C674EEA61
:100C9000070E4EF00047C0E73768FF075ED1CF6808
:100CA000012F06D056F8B02F0F78BC40A243326017
:100CB00020E056F8B07F91F800C004FA0CF4274306
:100CC00037600C6806680A2C0AD3B769093C04EB44
:100CD0004404A24097438A68A2401743B76109E0E1
:100CE0007769641C04EB4404A24097438A68A240DD
:100CF000174377610968304A102904D0112905D0BB
:100D0000122906D02AE09468240204E09468E401E1
:100D100001E094686402002C20DB04684FF0A046D8
:100D2000B44202D1254F009700E00096A76807F073
:100D30000307012F02D12768FF070AD1009F8FB157
:100D4000BF6807F00307012F0CD1009F3F68FF0722
:100D500008D0016C41F020010164012380F83C506F
:100D6000184653E6102908D011291AD01229F5D1B6
:100D7000916841F480019160F0E7B442EED191684E
:100D800041F4000191600E490E4A0968B1FBF2F18D
:100D900001EB8101490000E0491E00910029FBD1CF
:100DA000DCE7B442DAD1916841F08071E3E70000FA
:100DB0000020088200F0FF83000300500001005073
:100DC000A000002040420F0010B504460068806873
:100DD00000074AD494F83C00012846D0012084F84A
:100DE0003C002046FFF70CFC002110B184F83C10B9
:100DF00010BD226C42F201039A4342F480522264F5
:100E00004FF0A042D2F80833DB0602D023689342A9
:100E100003D1236C23F4801302E0236C43F480138A
:100E20002364236CDB0500D4616484F83C102368E0
:100E3000602119602168CB689B01D9D4D2F80833AE
:100E4000DB060DD0D2F8083303F01F03062B07D0C2
:100E5000D2F8083303F01F03072B01D09142C7D10A
:100E60008A6842F008028A6010BD022010BD0000AE
:100E700070B5026800234FF0A04494B0A24200D1A4
:100E8000314C009490F83C40012C1FD0012480F894
:100E90003C40926852074CD4009A9268520748D45A
:100EA0002A4A0D6840F61F7445B3956890F8306083
:100EB00025F4604545EA46354E683543956005683A
:100EC000AE6806F00306012E06D102E0022014B03F
:100ED00070BD2D68ED0731D1009DAD6805F00305AB
:100EE000012D03D1009D2D68ED0727D10D6889687C
:100EF0000D439168A1430D4395601FE0916821F473
:100F00006041916001688D6805F00305012D02D1F3
:100F10000968C90712D10099896801F00301012904
:100F200003D100990968C90708D19168A14391606C
:100F300004E0016C41F0200101640123002180F8EC
:100F40003C101846C3E700000001005000030050A9
:100F5000F0B594B00025009590F83C202E46012A6B
:100F600019D0012780F83C7003689A6852077CD436
:100F70004A681F24052A11D2D3F830C002EB42027E
:100F8000520094402CEA040C0C6894404CEA040C87
:100F9000C3F830C035E0022014B0F0BD0A2A0FD2E9
:100FA000D3F834C0521F02EB4202520094402CEAA4
:100FB000040C0C6894404CEA040CC3F834C020E0E4
:100FC0000F2A0FD2D3F838C00A3A02EB420252007D
:100FD00094402CEA040C0C6894404CEA040CC3F8CE
:100FE00038C00EE0D3F83CC00F3A02EB4202520088
:100FF00094402CEA040C0C6894404CEA040CC3F8AE
:101000003CC00268936813F00C0F4FF0070374D1D3
:10101000D1F800E0BEF10A0F10D39469AEF10A0EC8
:101020000EEB4E0C03FA0CFE24EA0E04D1F808E095
:101030000EFA0CFE44EA0E0494610FE0D2F814C0DC
:101040000EEB4E0403FA04FE2CEA0E0CD1F808E075
:101050000EFA04FE4CEA0E0CC2F814C002684C6989
:10106000D2F80CC0CCF3C10C00E0E1E04FEA4C0C2C
:1010700004FA0CF4D1F810E0DFF810C2BEF1010F51
:1010800042D0BEF1020F4DD0BEF1030F58D0BEF1D9
:10109000040F63D0146E91F800C004F0F844B4EB70
:1010A0008C6F03D1146E24F0004414660268546EF1
:1010B00091F800C004F0F844B4EB8C6F03D1546E87
:1010C00024F0004454660268946E91F800C004F065
:1010D000F844B4EB8C6F03D1946E24F00044946612
:1010E0000268D46E91F800C004F0F844B4EB8C6F41
:1010F00003D1D46E24F00044D4660268946804F0EE
:101100000304012C3AD136E0D2F860E00EEA0C0E6E
:1011100091F800C044EA8C644EEA040E4EF000449C
:101120001466EAE7D2F864E00EEA0C0E91F800C00B
:1011300044EA8C644EEA040E4EF000445466DCE748
:10114000D2F868E00EEA0C0E91F800C044EA8C6414
:101150004EEA040E4EF000449466CEE7D2F86CE0FE
:101160000EEA0C0E91F800C044EA8C644EEA040EBC
:101170004EF00044C0E71468E4075ED1CC68012C4F
:1011800006D052F8B03F0C78A740BB43136020E074
:1011900052F8B04F91F800C007FA0CF73C431460C6
:1011A0000A6804680A2A0AD3A769093A02EB4202CC
:1011B00093409F438B6893401F43A76109E0676991
:1011C000521C02EB420293409F438B6893401F43A3
:1011D000676109682E4A102904D0112905D0122907
:1011E00006D02AE093681B0204E09368DB0101E06B
:1011F00093685B02002B20DB03684FF0A044A342FE
:1012000002D1244F009700E000949F6807F0030785
:10121000012F02D11F68FF070AD1009F8FB1BF685D
:1012200007F00307012F0CD1009F3F68FF0708D08C
:10123000016C41F020010164012580F83C602846E2
:10124000AAE6102908D011291AD01229F5D19168DF
:1012500041F480019160F0E7A342EED1916841F43E
:10126000000191600C490D4A0968B1FBF2F101EBF4
:101270008101490000E0491E00910029FBD1DCE713
:10128000A342DAD1916841F08071E3E700F0FF8377
:101290000003005000010050A000002040420F0059
:1012A0007047704770470000F0B54FF0000595B0EB
:1012B00004002F462E46009505D0206CC00648D469
:1012C000206C18B133E0012015B0F0BD6664E6640F
:1012D000A66484F83C60204600F0D8F82068806856
:1012E000C00024D42046FFF755F90546206CC006FF
:1012F0001DD4E5B9206C20F4885040F00200206431
:101300002068816821F0405181602068816841F047
:1013100080518160574858490068B0FBF1F000EBFC
:101320008000400000E0401E00900028FBD12068B3
:101330008168C90002D5806880000AD5206C20F041
:10134000020040F010002064606C40F00100606416
:101350000125206CC0067DD4002D7BD120688168DA
:1013600049077ED4216C21F4807141F0020121648F
:1013700042494FF0A042904200D1414A0092826817
:1013800002F00302012A02D10068C00710D10098C0
:1013900040B1806800F00300012803D10098006884
:1013A000C00705D18868626820F440301043886027
:1013B000D4E902100843616B012902D04FF4805236
:1013C00000E00022617E42EA4132104394F820207E
:1013D0003843012A0AD1A9B1216C21F0020141F060
:1013E00020012164616C41F001016164A16A01295D
:1013F00002D0E26A1143084321688A6812F00C0F98
:1014000008D013E0A18C1F4A02EB4141014341F493
:101410008030EBE7CA6844F202039A43CA60217E37
:1014200094F83020890341EA420108432168CA68E0
:10143000154B1A400243CA60206901282068016BDD
:1014400021F00F0102D1E269521E1143016366646B
:10145000206C00E005E020F0020040F00100206474
:1014600006E0206C20F0020040F01000206401250E
:10147000284629E7A000002040420F00000300504A
:10148000000100500000FEFF07C0F0FF2DE9F04F03
:1014900087B0054614216846FEF78FFF3D4AD5F810
:1014A00000C000241068032780263B49401C4FF0F1
:1014B00090434FF480794FF4806A4FF0200BBCF1D9
:1014C000A04F07D0DFF8D480C44532D11060012886
:1014D00032D039E01060012807D1486940F08050CF
:1014E0004861486900F080500590486940F4003038
:1014F00048614869694600F4003005900F20CDE945
:1015000000070294184600F03DFD264F2448C7E925
:1015100000044FF44050C7E906B038462FE0AF63EF
:101520000022114612207D6201F0BEF9122001F066
:10153000ADF907B0BDE8F08F486940F080504861D0
:10154000486900F080500590486940F400304861D7
:101550004869694600F4003005907020CDE9000725
:101560000294184600F00EFD0D480E4F143044371B
:10157000C7E900044FF40050C7E906B0384607F148
:10158000080282E8500600F08CFC0028C7D0FFF764
:1015900061F9C4E7900000200010024000010050F3
:1015A000080002409C0200202DE9F0470446006834
:1015B00090468946806840076ED494F83C00012824
:1015C0000CD001204FF0A04684F83C00D6F8080368
:1015D0004FF00007C00604D0012507E00220BDE857
:1015E000F0872046FFF70CF8050002D084F83C7025
:1015F00053E0206C40F60161884340F48070206421
:10160000D6F80803C00602D02068B04206D1206C8C
:1016100020F4801020642068C06807E0216C41F449
:10162000801121641E49884208D1F068800105D5E7
:10163000206C20F4005040F480502064206CC004E2
:1016400004D5606C20F00600606400E0676484F8F4
:101650003C70A16B13488862A16B1348C862A16BF0
:101660001248086321681C2008602068416841F026
:10167000100141602068C16841F00101C16021682A
:1016800043464A464031A06B00F032FC2068816836
:1016900041F00401816000E0022528469FE7000038
:1016A00000010050AD04000807050008F10400081F
:1016B00090F82020012A07D0022A05D0416A41F47F
:1016C0008021416201207047006842690A434261FB
:1016D00000207047F0B590F820500468A468012DF0
:1016E00005D0022D03D0416A41F4802157E014F067
:1016F000406F01D1E5004FD5C4F301640125A54039
:101700001D608D684FF4C0739DB1CE6835434E683F
:1017100045EAC605066803EB0417F5514FF4C27598
:10172000076805EB04150E697E51097D012905D076
:1017300009E00E88CD6845EA4655EBE701684E5949
:1017400046F480764E511179D579567941EA056192
:1017500095792D0445EA062529434FF4C676056898
:1017600006EB0416A9511178D57841EA0561957800
:1017700052782D0445EA022211434FF4C4750268E1
:1017800005EB04155151006803EB0411425842F077
:10179000010242500020F0BD416A41F40011416253
:1017A0000120F0BD10B590F820300268012B07D061
:1017B000022B05D0416A41F480214162012010BD15
:1017C000D2F8000240F00100C2F80002087D00F0EB
:1017D0001F0301209840D2F81C328343C2F81C3208
:1017E000CB69B3B9D2F80C328343C2F80C328C897E
:1017F0004B6864F31F434C6902EBC404C4F84032E5
:101800000C890B6864F31F434C6902EBC404C4F8F1
:101810004432CB69012B16D1D2F80C320343C2F803
:101820000C320C884B6864F31F434C6902EBC40410
:10183000C4F840320C89CB6864F31F434C6902EB57
:10184000C404C4F844328B69002BD2F804320FD0A0
:1018500053EA0003C2F804320B69002BD2F81432A9
:1018600008D00343C2F81432096A012904D008E001
:101870008343EFE78343F5E7D2F81C120143C2F834
:101880001C12D2F8000220F00100C2F80002002071
:1018900010BD704770B590F82040012C05D0022C87
:1018A00003D0416A41F4802128E0046809B3246927
:1018B000A40720D04FF4D874056804EB01142D5907
:1018C00015F00405956005682D591AD0ED0855608E
:1018D00005682C5904F00204D4604FF4DA740568EA
:1018E00004EB01142E5906F00F06082E0CD3082520
:1018F0000DE0E468DCE7416A41F400114162012037
:1019000070BD6D0D1560E3E72D5905F00F051561EC
:1019100005682D59C5F30725956105682C59240CD8
:1019200054614FF4DC72046802EB0112A4581C707D
:101930000468A458240A5C700468A458240C9C70A1
:101940000468A258120EDA704FF4DE72046802EBDB
:101950000112A4581C710468A458240A5C7104681C
:10196000A458240C9C710468A258120EDA71006805
:1019700029B1016941F020010161002070BDC168F9
:1019800041F02001C160F8E72DE9F05F05460068ED
:1019900000244669D0F804908768D0F80CB0D0F8DD
:1019A00010A0D0F81880F10748D0F90714D0012111
:1019B0008160B80703D5284600F06DFA0CE078077F
:1019C00002D54FF4006407E0380702D54FF4805485
:1019D00002E0284600F05EFAF80516D529684FF4B3
:1019E00080708860B80503D5284600F056FA0CE0F0
:1019F000780502D544F4005407E0380502D544F4D4
:101A0000804402E0284600F047FAF80316D529681A
:101A10004FF480308860B80303D5284600F03FFAC1
:101A20000CE0780302D544F4004407E0380302D503
:101A300044F4803402E0284600F030FA300707D53D
:101A40005FEACB6004D52968102044F40074C860B4
:101A500070074FF0080707D55FEA0B7004D52868B8
:101A6000C760284600F058F9B00706D52868C06856
:101A7000800702D0284600F051F9700607D55FEACA
:101A8000CA6004D52968102044F480640861B00657
:101A900007D55FEA0A7004D528680761284600F078
:101AA000C9F9F00606D528680069800702D02846E3
:101AB00000F0C1F9B00308D55FEAC96005D529680F
:101AC00010204860284600F0B7F9F00307D55FEA18
:101AD000097004D528684760284600F0E1F9300411
:101AE00046D55FEA497040D5F00504D55FEAC87075
:101AF00001D044F00104B00504D55FEA887001D537
:101B000044F00204700504D55FEA487001D544F042
:101B10000404300529D518F0700F26D008F07000A5
:101B2000402815D006DC102809D020280AD03028FB
:101B300016D10AE050280ED0602811D10EE044F0F2
:101B400008040DE044F010040AE044F0200407E02B
:101B500044F0400404E044F0800401E044F4807464
:101B60002868816921F0700181612968042048603A
:101B7000002C05D0686A204368622846FFF789FE7A
:101B8000BDE8F09F70B5040003D094F8200010B1B8
:101B900004E0012070BD204600F082F82068016852
:101BA00041F00101016000F00BFB0546052604E051
:101BB00000F006FB401B0A2811D820684068C007C7
:101BC000F6D02068016821F00201016000F0F8FA07
:101BD00005460BE000F0F4FA401B0A2806D9606ABB
:101BE00040F40030606284F82060D2E720684068EA
:101BF0008007EFD4207E0128206801683DD021F0C5
:101C000080010160607E01282068016838D021F0E1
:101C100040010160A07E01282068016833D021F0D6
:101C200020010160E07E0128206801682ED041F08B
:101C300010010160207F01282068016829D021F06F
:101C400008010160607F01282068016824D021F02C
:101C500004010160D4E902010843D4E904121143EC
:101C600008436168491E08432168C861002060621A
:101C7000012084F82000002070BD41F08001C0E701
:101C800041F04001C5E741F02001CAE721F0100111
:101C9000CFE741F00801D4E741F00401D9E70000A3
:101CA00010B586B0044614216846FEF786FB174936
:101CB0002068884227D11648C16941F00071C1618E
:101CC000C16901F000710591416941F480214161D0
:101CD0004069694600F4802005904FF44070009000
:101CE000022001900020029003200390092004901C
:101CF000084800F047F900220121142000F0D4FD2B
:101D0000142000F0C3FD06B010BD000000640040C8
:101D100000100240000400487047000000B587B082
:101D20003A4B6A460021FFF7B5FD0098B0F5A07F59
:101D300069D136499FED361A088800EE100AA1F1E4
:101D40007E00F8EE400A80EE810A80ED120A4A8891
:101D500000EE902A2F4AF8EE601AC1EE810AC0ED1B
:101D6000130A898801EE901A10EE101AF8EE611A23
:101D7000914281EE812A80ED142A02DAB3EE0E0A36
:101D800006E010EE101A244A914203DD9FED230A6B
:101D900080ED120AF4EEC00AF1EE10FA07DD90EDC4
:101DA000151ADFED1F1A31EE211A80ED151AB1EE6A
:101DB000041A30EE411AB4EEE01AF1EE10FA0BDD1F
:101DC000184A4169914207DAD0ED150A9FED161ABB
:101DD00070EEC10AC0ED150A144A416D914203DD4F
:101DE000F2EE040AC0ED150A114A416D914202D883
:101DF00000EE901A03E0FAEE040AC0ED150A30EE88
:101E0000600A80ED120A07B000BD00007E000020CD
:101E10000000C8420000F04100000C4300000C43E9
:101E2000CDCCCC3D33339B410AD7A33C00002041AD
:101E3000000020C1704770477047000070B504462D
:101E400090F82000012804D0606A40F4002060620D
:101E500018E0022084F820002068016821F00101C8
:101E6000016000F0ADF905460EE000BF00F0A8F9F2
:101E7000401B0A2808D9606A40F4003060620520DF
:101E800084F82000012070BD20684068C007EDD1B3
:101E9000606270BD70477047704770477047704709
:101EA000704770B5040021D0022084F82100226818
:101EB000116843F6F0708143D4E901031843D4E973
:101EC00003352B43184363691843A3691843E36937
:101ED0001843084310602046FEF796FC0020A063DC
:101EE000012184F8211084F8200070BD012070BD0C
:101EF00070B5044690F82000002501280CD0012080
:101F000084F8200094F821600020012E06D084F887
:101F100020000225284670BD022070BD022684F8EC
:101F20002160A0632068066826F00106066020464E
:101F3000FEF77AFCE06A00282068016802D041F0D0
:101F40000E0106E041F00A0101602068016821F0FD
:101F5000040101602068016841F001010160D9E7D6
:101F600070B5044600F02CF90546601C02D0044808
:101F70000078044400F024F9401BA042FAD370BD5D
:101F8000940000202DE9F04FDFF800920023012695
:101F90000325A9F1040B85B00F2709F1040AABF161
:101FA000040EEAE006FA03F422407CD091F804C063
:101FB0000CF0030CBCF1010F02D0BCF1020F26D1D2
:101FC000D0F808C0CDF800C04FEA430C05FA0CF871
:101FD000CDF810C0DDF800C02CEA080CCDF800C028
:101FE000D1F80C80DDF810C008FA0CF8DDF800C05C
:101FF00048EA0C08C0F80880D0F804C02CEA040CA9
:102000000C79C4F300149C4044EA0C0444600C793D
:10201000E443A4070DD0D0F80CC04FEA430805FAFA
:1020200008F42CEA040C8C6804FA08F444EA0C0462
:10203000C4600C7904F00304022C19D1DC0800EB15
:1020400084040294246A4FEA437C4FEADC6CCDF8A6
:1020500010C007FA0CFC24EA0C04D1F81080DDF85B
:1020600010C008FA0CF848EA0408029CC4F8208062
:1020700004684FEA430805FA08FC24EA0C0491F8C6
:1020800004C00CF0030C0CFA08FC4CEA040CC0F879
:1020900000C04C6814F4403F6ED03D4CD4F818C0DA
:1020A0004CF0010C00E067E0C4F818C0A46923F00C
:1020B000030C04F001040094364C64440294A468B8
:1020C0004FEA837C4FEA1C7807FA08FC24EA0C04E8
:1020D000B0F1904F06D0DFF8C0C0604505D14FF099
:1020E000010C12E04FF0000C0FE0DFF8B0C06045CB
:1020F00002D14FF0020C08E0DFF8A4C0604502D125
:102100004FF0030C01E04FF0050C0CFA08FC4CEA10
:10211000040C029CC4F808C0D9F80040CC46D1F8A1
:10212000048094435FEAC82800D51443CCF80040EB
:10213000DAF80040D446D1F8048094435FEA882856
:1021400000D51443CCF80040DBF80040DC46D1F861
:10215000048094435FEA883800D51443CCF80040EB
:10216000DEF80040F446D1F8048094435FEAC838B2
:1021700000D51443CCF800405B1C0A6832FA03F423
:102180007FF410AF05B0BDE8F08F000008040140F7
:102190000010024000000140000400480008004810
:1021A000000C0048426921EA02030A4043EA024166
:1021B000816170470AB18161704781627047000098
:1021C000014880687047000094000020F0B590F846
:1021D000C130022B27D090F8C030012B23D001252D
:1021E00080F8C050022380F8C1300468D4F88033EE
:1021F0000026012919D0022921D004292BD0082931
:1022000035D0072180F8C11080F8C06090F8C11067
:10221000072938D00168C1F8803380F8C15080F8B0
:10222000C0600020F0BD0220F0BD23F4E02113685F
:1022300003F4E0230B435168C4F8BC13E6E723F42E
:10224000601113684FF4601707EAC3030B4351682A
:10225000C4F8C013DAE723F0E07113684FF0E077B9
:1022600007EA83130B435168C4F8C413CEE723F085
:10227000606113684FF0606707EA43230B435168BE
:10228000C4F8C813C2E70120F0BD10B590F8C02013
:10229000012A21D0012280F8C020022380F8C13019
:1022A0004B1C1BD00368D3F8CC4344F00204C3F8A2
:1022B000CC430368D3F8CC4324F00C040C43C3F89C
:1022C000CC430168D1F8CC3343F00103C1F8CC33DF
:1022D00080F8C120002010BD022010BD0168D1F897
:1022E000CC3323F00203C1F8CC33EAE770B590F8A1
:1022F000C130022B3CD090F8C030012B38D00125E2
:1023000000F8C05F022343701388948803F4E053FD
:10231000C4F308041C4313896FF07E4603F4007372
:102320002343148A04F480441C43938903F4004338
:102330002343948A06EA04441C43936903F0007320
:102340002343146AD26904F080441C4302F0004223
:10235000224350F8C03CB82404EBC1141959054E6F
:10236000314011431951457000210170084670BD7C
:10237000022070BD0020003C38B5040054D002207B
:1023800084F8C1000025C4F8C450C4F8C850C4F88B
:10239000CC50C4F8D050C4F8D450C4F8D850207AE7
:1023A000C0071BD021492068884208D12048816994
:1023B00041F000518161806900F000500090216877
:1023C000086820F44042208A00F44040104320F482
:1023D0004052A08A00F4405010430860204600F0AC
:1023E00029F8207A800708D52168086820F440720F
:1023F000A08900F4407010430860012084F8C100F7
:1024000084F8C0505FF00001C1EBC10004EB800014
:10241000491C8561C561056245628562C9B2056373
:102420000529F1D9002038BD012038BD00740140D4
:102430000010024008B500680649884208D10648E5
:10244000816941F000518161806900F00050009085
:1024500008BD0000007401400010024010B586B0B5
:10246000044614216846FDF7A8FF0F4920688842FA
:1024700017D10E48416941F4003141614069694614
:1024800000F4003005904FF440600090022001906D
:102490000290032003900D2004904FF09040FFF72E
:1024A00071FD06B010BD0000007401400010024034
:1024B00070B50D460446FFF783FE064607E0681C2C
:1024C00005D0FFF77DFE801BA8420DD865B12068BE
:1024D000D0F88803C043C003F1D4012084F8C100C0
:1024E000002084F8C00070BD072084F8C1000320DC
:1024F00070BD70B590F8C130022B23D0022380F854
:10250000C130052920D08023046803EBC11563592D
:1025100023F007069368334323F01806D368334348
:1025200063519425046805EBC11513686351982421
:10253000036804EBC11152685A50012180F8C110A0
:10254000002070BD022070BD0368196821F00704E7
:102550009168214321F01804D16821431960036870
:1025600011685961516802689161E6E72DE9F04F01
:1025700090F8C140022C25D090F8C040012C21D009
:102580004FF0010980F8C090022480F8C140002774
:102590004FF0070C052918D09C2404EBC116012A22
:1025A00039D08024A8254FF4005A4FF4405B05EB46
:1025B000C11504EBC114022A2FD0042A45D0082AE1
:1025C0000BD144E00220BDE8F08F012A0AD0022A94
:1025D0000CD0042A0ED0082A10D080F8C1C080F890
:1025E000C0700EE002681968D1610AE002681968DB
:1025F000516206E002681968916202E00268196897
:10260000D16290F8C110072948D080F8C19080F8B5
:10261000C0700020D7E7196835E04FF0A408D0F863
:1026200000C008EBC1111A684CF801205968002954
:1026300001680A5922F440522ED00A5101680A5901
:10264000D3F804C042EA0C0218E0196821E04FF008
:10265000AC08D0F800C008EBC1111A684CF8012092
:102660005968002901680A5922F4404214D00A51DD
:1026700001680A59D3F804C042EA8C020A51596829
:10268000514503D1996802689151BAE75945B8D1CB
:10269000996802685151B4E70A51B2E7012092E704
:1026A00010B590F8C020012A0ED0012200F8C02FEA
:1026B0000223437050F8C03C1C680C431C604270FD
:1026C00000210170084610BD022010BD70B50446FF
:1026D00090F8C100022811D094F8C00001280ED053
:1026E000012584F8C050022084F8C100204600F083
:1026F0006EFF84F8C150002084F8C00070BD022035
:1027000070BD10B590F8C020012A10D0012200F849
:10271000C02F0223437050F8C03CD3F894430C43BD
:10272000C3F89443427000210170084610BD022096
:1027300010BD2DE9F041054690F8C10014460E4643
:10274000022825D095F8C000012823D0012785F85C
:10275000C070022085F8C100052E1DD0284600F06B
:102760009DFFC6EBC60005EB800021680162616831
:102770004162A1688162E168C162216901633146F9
:10278000284600F0F7FE85F8C170002085F8C000EB
:10279000BDE8F0810220FBE728680168D0F8A0239B
:1027A00021F020036169194321F40063A1691943F1
:1027B00021F48063E169194321F0C063216A194360
:1027C00021F00063616A1943A36A21F0404141EAA4
:1027D000830121F00053216B194322F48033E26A14
:1027E00001601A432868C0F8A023BAE7024881684C
:1027F000027811448160704794000020074810B5AA
:10280000016841F010010160032000F06DF80F2015
:1028100000F006F800F024F8002010BD002002406F
:1028200070B50D4D04464FF47A712878B1FBF0F085
:102830000A490968B1FBF0F000F004FD48B9102C1A
:1028400007D200222146501E00F02EF800206C60B6
:1028500070BD012070BD000094000020A000002089
:10286000094808B5816941F001018161816901F080
:1028700001010091C16941F08051C161C06900F05E
:102880008050009008BD000000100240002809DBC5
:1028900000F01F02012191404009800000F1E0207A
:1028A000C0F8001170470000F0B40E4B1B680C46D6
:1028B000C3F30223C3F10705042D00D90425191D14
:1028C000072901D2002300E0DB1E012606FA05F1EC
:1028D000491E214099409E40761E16403143F0BC6F
:1028E00001F0C2BD0CED00E0064900F007020868E7
:1028F0004FF6FF03184040EA0220034A10430860E5
:10290000704700000CED00E00000FA052DE9F84FDB
:102910000446006800265C4DC0036ED5E869C0001F
:1029200008D4E86940F08050E861E869012600F0C9
:102930008050009055480168C90512D4016880464E
:1029400041F480710160FFF73BFC074605E000BFE2
:10295000FFF736FCC01B642835D8D8F80000C00546
:10296000F6D5286A10F4407053D0A18801F4407164
:1029700081424ED0286A4FF4803191FAA1F2B2FA26
:1029800082F29700424A4FF00108174420F4407049
:10299000C7F8008491FAA1F1B1FA81F102EB81014B
:1029A0000023C1F800342862C00732D0FFF708FCCA
:1029B000074641F2883A4FF0020907E0FFF700FCB2
:1029C000C11B514502D90320BDE8F88F99FAA9F13E
:1029D000B1FA81F141F040014846B8EB511F01D1F5
:1029E00029680CE090FAA0F1B1FA81F141F04001C0
:1029F000B0EB511F02D1296A01E015E0696A99FA2A
:102A0000A9F0B0FA80F000F01F0008FA00F21142BD
:102A1000D4D0286A616820F44070084328621EB14F
:102A2000E86920F08050E8612078C00705D0286B65
:102A3000A16820F00300084328632078800605D5AC
:102A4000286BE16820F01000084328632078000616
:102A500005D5E86A216920F4F8700843E862208807
:102A6000C00405D5286B616920F480700843286391
:102A70002088400405D5286BA16920F480500843C4
:102A800028630020A0E70000001002400070004012
:102A9000000042422DE9F0470F46050069D04A4E3A
:102AA000306800F00700B84209D2306820F0070013
:102AB00038433060306800F00700B84259D12878B8
:102AC000424C800705D56068A96820F0F0000843F3
:102AD00060602878C0073DD06968012001290DD0C9
:102AE000022923D05FF0020393FAA3F2B2FA82F232
:102AF00042F02002520904D0226803E04FF4003370
:102B0000F2E7626A93FAA3F3B3FA83F303F01F03C5
:102B1000984002422DD0606820F0030008436060B6
:102B2000FFF74EFB804641F288390CE04FF000730E
:102B3000DAE700BFFFF744FBA0EB0801494502D9E3
:102B40000320BDE8F0876068696800F00C00B0EB16
:102B5000810FEFD1306800F00700B8420BD9306820
:102B600020F0070038433060306800F00700B842BA
:102B700001D00120E5E72878400705D56068E968BD
:102B800020F4E060084360602878000706D560689C
:102B9000296920F4605040EAC100606000F036F816
:102BA0006168F02292FAA2F201F0F001B2FA82F228
:102BB000D140074A515CC840064908600648006891
:102BC000FFF72EFE0020BCE700200240001002406C
:102BD00046450008A0000020980000200848094948
:102BE000006849684FF4E06292FAA2F201F4E061F1
:102BF000B2FA82F2D140044A515CC84070470000EA
:102C0000A00000200010024056450008174A10B5E9
:102C10005168174801F00C03042B02D0082B01D097
:102C2000801010BD4FF4701494FAA4F401F47013E2
:102C3000B4FA84F4E3400F4CD26AE45C0F2393FAB5
:102C4000A3F302F00F02B3FA83F3DA40094B103317
:102C5000C9039A5C06D500231946FDF705FBA0FBC6
:102C6000040110BD0448A4FB000110BD0010024087
:102C70000048E8012645000800093D002DE9F84F0D
:102C8000050071D02878FC4EC0074FF0010425D014
:102C900070686704C0F38100012807D07068C0F332
:102CA000810002281BD17068C00318D597FAA7F0DD
:102CB000B0FA80F040F02000400901D0306800E018
:102CC000706A97FAA7F1B1FA81F101F01F0104FAD5
:102CD00001F1084265D068680028D2D061E06868D8
:102CE000B0F5803F0BD010B1B0F5A02F17D03068F1
:102CF00020F480303060306820F4802002E03068BA
:102D000040F480303060F06AA96820F00F0008437A
:102D1000F062686820B3FFF753FA80460AE0306833
:102D200040F480203060EAE7FFF74AFAA0EB0800A1
:102D3000642871D897FAA7F0B0FA80F040F020002C
:102D4000400901D0306800E0706A97FAA7F1B1FA43
:102D500081F101F01F0104FA01F10842E4D020E002
:102D6000FFF72EFA804607E0C2E000BFFFF728FA1F
:102D7000A0EB08006428DCD897FAA7F0B0FA80F03E
:102D800040F02000400901D0306800E0706A97FAF6
:102D9000A7F1B1FA81F101F01F0104FA01F1084233
:102DA000E4D12878DFF8D48280074FF0000A4FF092
:102DB000020730D570684FF0F80B10F00C0F07D0F9
:102DC0007068C0F38100022827D17068C00324D442
:102DD00097FAA7F0B0FA80F040F02000400901D047
:102DE000306800E0706A97FAA7F1B1FA81F101F05A
:102DF0001F0104FA01F1084202D02869012877D1A5
:102E000030689BFAABF220F0F8016869B2FA82F2FE
:102E10009040014331605AE064E1286988B394FA34
:102E2000A4F0B0FA80F048F82040FFF7C9F98146D5
:102E300006E000BFFFF7C4F9A0EB090002289AD80A
:102E400097FAA7F0B0FA80F040F02000400901D0D6
:102E5000306800E0706A97FAA7F1B1FA81F101F0E9
:102E60001F0104FA01F10842E4D030689BFAABF28A
:102E70006969B2FA82F220F0F800914008433060AC
:102E800025E0FFE794FAA4F0B0FA80F048F820A01B
:102E9000FFF796F9814605E0FFF792F9A0EB0900EC
:102EA0000228CCD897FAA7F0B0FA80F040F02000C2
:102EB000400901D0306800E0706A97FAA7F1B1FAD2
:102EC00081F101F01F0104FA01F10842E4D12878F0
:102ED00000076CD5A869A8B394FAA4F0B0FA80F002
:102EE00008EB8000C0F88044FFF76AF9814607E0EC
:102EF000A4E100BFFFF764F9A0EB090002289ED807
:102F000097FAA7F0B0FA80F040F06000B4EB501FE1
:102F100001D130680BE097FAA7F0B0FA80F040F0EA
:102F20006000B7EB501F01D1306A00E0706A97FA79
:102F3000A7F1B1FA81F101F01F0104FA01F2104288
:102F4000D8D034E0FFE794FAA4F1B1FA81F108EBAC
:102F50008101C1F880A4FFF733F9814606E000BF84
:102F6000FFF72EF9A0EB090002289AD897FAA7F0EC
:102F7000B0FA80F040F06000B4EB501F01D130682F
:102F80000BE097FAA7F0B0FA80F040F06000B7EBE2
:102F9000501F01D1306A00E0706A97FAA7F1B1FAC8
:102FA00081F101F01F0104FA01F21042D8D1287812
:102FB000400768D5F0694FF00009C00009D4F069F6
:102FC00040F08050F061F0694FF0010900F080504E
:102FD00000902B480168C90512D4016841F4807142
:102FE0000160FFF7EDF8834606E000BFFFF7E8F861
:102FF000A0EB0B00642875D821480068C005F5D502
:10300000E86801280AD008B1052811D0306A20F0FC
:1030100001003062306A20F0040002E0306A40F0C3
:1030200001003062E86868B3FFF7CAF883460DE034
:10303000306A40F004003062F0E700BFFFF7C0F8EC
:10304000A0EB0B0141F2883081424BD897FAA7F0F0
:10305000B0FA80F040F04000B4EB501F01D130686E
:1030600013E097FAA7F0B0FA80F040F04000B7EB19
:10307000501F09D1306A08E00010024000004242AF
:10308000007000400CE040E0706A97FAA7F1B1FAD6
:1030900081F101F01F0104FA01F21042CED02DE0BF
:1030A000FFF78EF8834607E0FFF78AF8A0EB0B01E5
:1030B00041F28830814215D897FAA7F0B0FA80F033
:1030C00040F04000B4EB501F01D130680CE097FA9B
:1030D000A7F0B0FA80F040F04000B7EB501F02D1EB
:1030E000306A01E083E0706A97FAA7F1B1FA81F1E2
:1030F00001F01F0104FA01F21042D5D1B9F1000F1D
:1031000003D0F06920F08050F061E86980B3716805
:10311000C1F38101022977D04FF080714F0002285E
:10312000504609D091FAA1F1B1FA81F148F8210095
:10313000FFF746F805465DE0894691FAA1F1B1FA3C
:1031400081F1C24648F82100FFF73AF8804605E0D1
:10315000FFF736F8A0EB0800022848D897FAA7F046
:10316000B0FA80F040F02000400902D0306801E061
:1031700066E0706A97FAA7F1B1FA81F101F01F01D8
:1031800004FA01F10842E3D1D5E908100843716857
:1031900021F474110843706099FAA9F0B0FA80F034
:1031A0004AF82040FFF70CF8054604E0FFF708F85E
:1031B000401B02281BD897FAA7F0B0FA80F040F025
:1031C0002000400901D0306800E0706A97FAA7F14A
:1031D000B1FA81F101F01F0104FA01F10842E5D0D2
:1031E0002EE000BFFEF7ECFF401B022802D90320AF
:1031F000BDE8F88F97FAA7F0B0FA80F040F0200011
:10320000400902D0306801E00BE0706A97FAA7F13C
:10321000B1FA81F101F01F0104FA01F10842E1D194
:103220000EE00128E4D070682A6A00F480319142EF
:1032300004D1696A00F47010884201D00120D7E7F8
:103240000020D5E710B5401EB0F1807F01D30120EA
:1032500010BD4FF0E02460610F21601701F004F908
:103260000020A06107202061002010BD10B50400DF
:1032700003D094F83D0010B107E0012010BD0020FC
:1032800084F83C00204600F023F8022084F83D003A
:10329000211D206800F07CFF012084F8480084F89C
:1032A0003E0084F83F0084F8400084F8410084F830
:1032B000420084F8430084F8440084F8450084F810
:1032C000460084F8470084F83D00002010BD00004F
:1032D00008B500680B49884212D10B48816941F456
:1032E000802181618069002200F48020009001210A
:1032F0001A20FFF7D9FABDE808401A20FFF7C6BA2E
:1033000008BD0000004801400010024090F83D1048
:10331000012901D001207047022180F83D10016889
:10332000CA6842F00102CA6000680D49884208D0AC
:10333000B0F1804F05D00B49884202D00A4988423B
:1033400007D18168094A1140062906D0B1F5803FAE
:1033500003D0016841F001010160002070470000C6
:10336000002C014000040040004001400700010023
:103370002DE9F843040004D094F84900002518B161
:1033800007E00120BDE8F88384F84850204600F0AB
:1033900049F8022084F849002068016821F0010101
:1033A0000160204600F038FF0128EBD0206841681A
:1033B00021F4804141602068816821F02A01816008
:1033C0002068016841F001010160E564FEF7F8FE44
:1033D0008046206800684FF0030700074FF47A76B4
:1033E0000AD5434600224FF400112046009600F013
:1033F0007BFF08B13846C5E720680068400709D55B
:10340000434600224FF480012046009600F06CFFF6
:103410000028EFD1012084F8490084F8485028465C
:10342000B0E70000F0B587B0044614216846FCF709
:10343000C4FF1949206888422CD11848816941F499
:1034400080418161816901F480410591416941F4C4
:1034500000314161416901F400310591416941F454
:10346000802141614069022400F4802005904FF4DE
:1034700080700025032607278DE8F10069464FF08C
:103480009040FEF77FFDC0208DE8F10069460448BA
:10349000FEF778FD07B0F0BD003801400010024093
:1034A000000400482DE9F84F044690F849001F46F3
:1034B00016460D4601285BD1CDB1C6B194F848003F
:1034C000012855D04FF0010884F848804FF00009DA
:1034D000C4F84C90122084F84900FEF771FE26854E
:1034E00082466685A068B0F5805F03D004E00120C5
:1034F000BDE8F88F206910B12E4600250EE00026A9
:103500000CE08021204600F0EFFEA0B9AEB116F825
:10351000010B21680885608D401E6085608D5346D3
:103520004FF0000200970028EBD14FF040012046F9
:1035300000F0DAFE30B10320DAE735F8020BC0F311
:103540000800E6E721684020086221680820086238
:103550002068816941F0080181612068816941F03A
:103560001001816184F8498084F848900020BFE709
:103570000220BDE7062911D2DFE801F00911171D6D
:1035800023030068D0F8841341F0010104E00068CF
:10359000D0F8841341F00201C0F88413704700682A
:1035A000D0F8841341F00401F6E70068D0F88413E2
:1035B00041F00801F0E70068D0F8841341F01001F1
:1035C000EAE70068D0F8841341F02001E4E7F0B5A1
:1035D0000024E425076805EBC11657F806C0B82596
:1035E00005EBC1157D59202A27D00CDC042A15D003
:1035F00004DC012A12D0022A2BD11EE0082A1CD09A
:10360000102A26D10AE0402A08D0802A15D0B2F527
:10361000807F03D0B2F5007F1BD10EE04FF0BC0ECF
:103620000EEBC11E5A6847F80E204FF0C00E076817
:103630000EEBC1119A687A500BE0C42404EBC1145C
:103640005A683A51C827046807EBC1119A6862505A
:103650001024FE21A1401A682CEA010CA240D9686E
:1036600042EA0C02A14011431A69D3F814C017466C
:10367000A2400A430CFA04FC99694CEA020CA140EE
:1036800041EA0C01082F06D1AA0504D4AA0102D4EC
:10369000DA69A240114300688151F0BD2DE9F04F75
:1036A0008024036804EBC1169C5924F070449C519B
:1036B00003689A469D59E82404EBC114A64653F8C2
:1036C0000490E42404EBC114A3461C59D3F8A0339E
:1036D00025F0200755693D4325F4006795693D4372
:1036E00025F48067D5693D4325F0C067156A3D43E1
:1036F00025F00067556A3D4325F07047956A3D43C4
:10370000176B25F40035B7F1005F01D145F40035A2
:1037100025F04007556BD2F848802F4327F4802CC2
:10372000176D47EA0C0727F0FC7748EA070892F87C
:10373000387029F01F0C07F01F0747EA0C0727F025
:10374000004CD76B47EA0C0725B924F4807C146C35
:1037500044EA0C04D2F844C0BCF5606F02D0BCF55A
:10376000F05F01D1402D03D124F4F0544CEA04045D
:10377000D56C052921D2DFE801F003090F151B00E4
:10378000D26A23F4003343EA420316E0D26A23F4F8
:10379000802343EA820310E0D26A23F4002343EA41
:1037A000C2030AE0D26A23F4801343EA021304E05E
:1037B000D26A23F4001343EA42134AF806800668EB
:1037C00046F80E70066846F80B40D424026804EBF5
:1037D000C11155500068C0F8A033BDE8F08FFEE776
:1037E00090ED001AB4EEC01AF1EE10FA02D280ED9C
:1037F000000A7047B4EEE01AF1EE10FAF9DDC0ED00
:10380000000A70472DE9F04194B0002410941194FF
:10381000182168461294FCF7D0FD282106A8FCF771
:10382000CCFD31484FF0A0410125C0E900140561ED
:103830008460447680F82040A902C1620326C661F4
:103840004FF4E071C460816280F830500427476112
:1038500004764463FDF728FD08B1FCF7FBFF10A9CF
:1038600021481094FDF704FB08B1FCF7F3FF4FF07B
:1038700002080594CDE90274CDE9008504946946F7
:103880001948FDF765FB08B1FCF7E4FFCDE90068D6
:1038900069461548FDF75CFB08B1FCF7DBFFCDE995
:1038A000007669461048FDF753FB08B1FCF7D2FFDC
:1038B00040200F900894099424208DF835400695F7
:1038C00007950E908DF834400C958DF836400B948A
:1038D00006A905480A94FDF781F8002801D0FCF7F5
:1038E000B9FF14B0BDE8F081FC010020F0B591B043
:1038F00018210AA8FCF761FD28216846FCF75DFD48
:10390000284827490024C0E9001401250561846086
:10391000447680F82040A902C1620226C6614FF4B5
:10392000E071C460816280F83050042747610476FA
:103930004463FDF7B9FC08B1FCF78CFF0F94CDE9A7
:103940000C74CDE90A650E940AA91648FDF700FB30
:1039500008B1FCF77FFF0320CDE90A060AA9114848
:10396000FDF7F6FA08B1FCF775FF402009900294C4
:10397000039424208DF81D400095019508908DF842
:103980001C4006958DF81E40059469460548049430
:10399000FDF724F8002801D0FCF75CFF11B0F0BD62
:1039A000000100504C0200200F4810B50D49016085
:1039B0000321416000214FF4C0228160C0E903125D
:1039C000D20042610176417681760122C27601778A
:1039D0004177FEF7D7F8002803D0BDE81040FCF788
:1039E00039BF10BD0064004024030020094808B519
:1039F000416941F0010141614069002200F001008C
:103A0000009011460B20FEF74FFFBDE808400B2049
:103A1000FEF73CBF001002402DE9F04186B01421B2
:103A20006846FCF7CAFC1F48416941F480014161C6
:103A3000416901F480010591416941F4003141611E
:103A4000416901F400310591416941F480214161EE
:103A50004069154F00F4802040F204440590002294
:103A600021463846FEF7A6FB012216034FF0904888
:103A700031464046FEF79EFB00940124032569462B
:103A800038460194CDE90245FEF77CFACDE90064A1
:103A900069464046CDE90245FEF774FA06B0BDE836
:103AA000F0810000001002400004004870B5B0B082
:103AB00000242D942E94269427942894542168460B
:103AC0002994FCF77AFC2A942B9424211DA82C9489
:103AD000FCF773FC202115A8FCF76FFC61486049D6
:103AE000C0E900148460FEF747FC08B1FCF7B2FEA1
:103AF0000C215C48FEF7C9FB08B1FCF7ABFE0A21BC
:103B00005848FEF7D5FC08B1FCF7A4FE4FF400308E
:103B10008510CDE92D052DAA01215248FEF756FB4F
:103B200008B1FCF797FE2DAA02214E482E95FEF70C
:103B30004DFB08B1FCF78EFE4FF43446CDE9266408
:103B4000082526AA05214748CDE92845FEF7D1FCDE
:103B500008B1FCF77FFE0094019401200294CDE9A6
:103B60000340059406940794089409940A940B94CE
:103B70006A4605213B480C94FEF7DBFD08B1FCF7D3
:103B800069FE26AA01213748FEF7B3FC08B1FCF70D
:103B900061FE009401940D944FF480700E94CDE971
:103BA0000F401194129413946A4601212D481494E5
:103BB000FEF7BFFD08B1FCF74DFE01222AAB11460E
:103BC00028482A96FEF7D2FC08B1FCF743FE2B9456
:103BD0002AAB0222012123482C94FEF7C7FC08B12E
:103BE000FCF738FE2AAB042201211E48FEF7BEFC7A
:103BF00008B1FCF72FFE3220CDE91D401F94209420
:103C0000CDE92140239424941DAA0121154825942F
:103C1000FEF76CFB08B1FCF71DFE0420CDE9154052
:103C2000CDE91754024619941A941B9415AB01213F
:103C30000C481C94FEF74AFD08B1FCF70BFE1694E5
:103C400015AB0822012107481794FEF73FFD08B184
:103C5000FCF700FE0348FEF701FC30B070BD000029
:103C6000007401404C0300200B4810B50949016065
:103C7000002140F65F124160C0E90212016141611A
:103C80008161FFF7F3FA002803D0BDE81040FCF78C
:103C9000E1BD10BD00480140280400200D4810B5CA
:103CA0000B4901604FF4E1314160002181600C2239
:103CB000C160C0E904128161C1610162FFF758FB74
:103CC000002803D0BDE81040FCF7C4BD10BD0000C3
:103CD0000038014074040020FEE7FEE710B5294CCF
:103CE000294A2A49D4ED120A94ED021A80EE810A7B
:103CF000D4ED060A30EE600A84ED0C0A6069904249
:103D000002DA0120207007E0884202DD00202070E6
:103D10000BE02078012808D1B5EEC00AF1EE10FAC8
:103D200003D29FED1B0A84ED0C0A10EE100A8842A4
:103D300002DDB2EE040A04E01649884203D9BBEE64
:103D40000E0A84ED0C0AD4ED090A134800F0B7FB03
:103D50001148D4ED070A94ED0D0A283800F0AFFBA6
:103D60000D48D4ED040A94ED0A0A503000F0A7FB88
:103D7000D4ED030A94ED0B0A0748BDE81040283043
:103D800000F09DBB000000200000C040000020416A
:103D9000000000000000F0C10001002010B5F3EEAB
:103DA000040A2DED028B9FED238A9FED230A234801
:103DB000B0EE481A00F0AFFBDFED228A1F48B0EEEC
:103DC000481ADFED1F0AB0EE680A283000F0A3FBA6
:103DD0001A48B0EE481AF3EE040AB0EE680A7830DA
:103DE00000F099FB1548B0EE481AF3EE040AB0EE65
:103DF000680A503000F08FFB14489FED130AF3EE71
:103E0000040A80ED170A9FED120A80ED120AC0ED38
:103E10000D0A90ED021AC0EE010A90ED060A30EE8E
:103E2000C00A80ED0C0AB3EE0B0A80ED0A0ABDEC65
:103E3000028B10BD000000000000B442D80000203A
:103E4000000048420000C84200E02B47000000206C
:103E5000000020427047000010B5FFF79FFF0021CF
:103E60002E48FCF76BFD6420FEF77AF800212C4801
:103E7000FCF764FD6420FEF773F803222949274804
:103E8000FDF792FB27490222091F2548FDF78CFB0D
:103E900025480068016821F0040101601F4800689E
:103EA000416841F0200141601D480068416841F0CF
:103EB000200141601948FCF787FF1948FCF784FF8F
:103EC000012211034FF09040FEF774F90022042103
:103ED0001648FEF76FF916494BF266000860144960
:103EE000401008310860091D4FF4905008604FF4ED
:103EF00080311048FEF7D4FB4FF480210D48FEF7C7
:103F0000CFFB0C210B48FEF7FCFB4FF4FA70FEF7D9
:103F100027F8BDE810400848FFF7F8B9FC01002079
:103F20004C020020780000209C0200200004004881
:103F30001C7501404C0300202804002010B500F03F
:103F400069F8134C0A21206EB0FBF1F201FB12005C
:103F500008B9FCF7F5FB216E1420B1FBF0F200FB71
:103F6000121008B900F022FA206EC821B0FBF1F25D
:103F700001FB120020B94FF480610648FEF712F9E8
:103F8000206E401C2066BDE810400020FDF7E8BF11
:103F9000000000200004004870470000104811494C
:103FA00090ED170AFCEEC00A10EE900A086010EEC1
:103FB000100A0C490C4A0831904202DD4FF490502F
:103FC00001E04FF4D8400860F6EE000A054920EE03
:103FD000200A0C31BCEEC00A10EE100A08607047CF
:103FE000000000201C7501400000B44608484FF452
:103FF000805142784FF0904032B1322A04D0642A86
:1040000004D10122FEF7D6B80022FBE7704700007A
:10401000000000201E4910B54B781E485BB10A46CF
:10402000322B926822D0642B04D11B48824201DDDE
:104030000020487010BD91ED050A81ED0B0AD1ED0D
:10404000030A30EEC00A10EE102AB2F1804FF1DA06
:1040500010EE102AB2F1404FECD232224A709FED9E
:104060000F0A012281ED0B0A04210CE00C4B9A424D
:10407000E0DA64224A7000220421FEF79BF8012254
:1040800011034FF09040BDE81040FEF793B80000D8
:1040900000000020000400480000A0413333AB4181
:1040A00000009041FEF7A2BB10B596B028216846EB
:1040B000FCF783F9142111A8FCF77FF91C210AA849
:1040C000FCF77BF90120010403228DE8070004902E
:1040D0004FF4E010CDE90810022407946846FEF77B
:1040E000CDFD08B172B6FEE70F20CDE91104002422
:1040F0004FF48060CDE91340022111A81594FEF71A
:10410000C9FC08B172B6FEE744F281000A904FF490
:1041100080700E90000110900C940AA8FEF7F6FB38
:10412000002801D072B6FEE716B010BD0248016843
:1041300041F470010160704788ED00E010B5FCF7B4
:104140008BFBFFF7CBFD00F0F5F8DFED080A9FEDE4
:10415000080A0848FFF744FBFFF720FFFFF746FF78
:1041600004485C38416E491C416610BD67663047A3
:10417000000010455C00002004480168C943C907DD
:1041800003D1891E0160FFF7D9BF70471048014075
:10419000F0B502681B4B1C4F4FF0804C984203D087
:1041A000604501D0B84203D122F070044A6822432E
:1041B000164C174D174E984209D0604507D0B842AB
:1041C00005D0A04203D0A84201D0B04203D122F4CE
:1041D0004077CA683A434F6922F080023A4302604E
:1041E0008A68C2620A688262984205D0A04203D0FF
:1041F000A84201D0B04201D10969016301214161A6
:10420000F0BD0000002C01400004004000400140CF
:10421000004401400048014070B5044680682169AF
:1042200000250843616941F40041084321680A6898
:10423000274B1A4002430A60206A40F40061D4E927
:10424000060210430843E16801432068426822F4F3
:104250007C520A4342601F4920684FF6EF7688423D
:1042600024D11D48006B10F0030025D0012806D092
:10427000022807D0032824D11849606805E0FEF71A
:10428000C5FC1BE060684FF4803101EB5001B1FBCD
:10429000F0F0A0F11001B14213D84FF6F0710140D7
:1042A000C0F3420001432068C1600BE00C49884222
:1042B00002D00C49884204D1FEF790FC41006068AE
:1042C000E3E701250020A063E063284670BD0000FD
:1042D000F369FFEF00380140001002400024F400B1
:1042E00000440040004800402DE9F0419846174640
:1042F0000E460446069D08E0681C06D0FDF760FFE8
:10430000A0EB0800A8420BD855B12068C06936EA76
:1043100000000DD00020B842EED00020BDE8F081B2
:10432000012084F84900002084F848000320F5E7C4
:104330000120F0E71A4801464278D1ED171A1949D1
:1043400091ED061ACAB190ED0C0A2839D1ED060A92
:10435000B5EEC00AF1EE10FA1CDD2839F4EEC10A00
:1043600091ED060AF1EE10FA0AD2F4EEC00AF1EE6F
:1043700010FA0CD2B0EE600A09E031EE210A0BE02F
:10438000B4EEC01AF1EE10FA01D2B0EE410A30EEEE
:10439000210A01E030EEA10A80ED170A7047000003
:1043A0000000002028010020FEE70000294810B589
:1043B000294990ED130A9FED291A81ED000A90ED2D
:1043C0000E0A81ED010A90ED020A81ED020A90EDDC
:1043D000080A81ED030A90ED0F0A81ED040A90EDC1
:1043E000050A81ED050AD0ED170A80EE810ADFED9E
:1043F0001C0A80ED160A20EE200A81ED060A90EDD7
:10440000060A81ED070A90ED040A81ED080A427858
:1044100000EE102A2C22B8EE400A81ED090A90ED38
:10442000100AA1F1300081ED0A0AFBF794FF0A4857
:1044300000213038FF2300F82C1F302241708021EA
:1044400081707F21C1700449BDE8104030390548B2
:10445000FFF728B800000020A80100200000344722
:104460000000C842740400200907090E002804DB7C
:1044700000F1E02080F80014704700F00F0000F118
:10448000E02080F8141D7047FEF7B8F9FFF70CFE26
:10449000FFF7C2FAFFF7AAFAFFF7B4F9FFF726FA17
:1044A000FFF782FAFFF702FBFFF7F8FBFFF7DCFBF1
:1044B000FCF720F9FFF7D0FCFFF740FDFCE730EEFA
:1044C000600AF0EE002A80ED030AD0ED040AD0ED78
:1044D000001AB0EE402A30EE601A00EEE22A21EE19
:1044E000211A80ED071AD0ED011A60EE211AC0EDF5
:1044F000081AD0ED052A31EE211A32EE222AD0ED2B
:10450000022A22EE222A80ED092A31EE021A103008
:1045100080EC030A704780EC030A70474FF040704C
:10452000E1EE100A704702030405060708090A0BAA
:104530000C0D0E0F10100102030405060708090AEE
:104540000B0C0D0E0F100000000000000000010217
:10455000030406070809000000000102030400002C
:104560008045000800000020A4000000C4010008ED
:1045700024460008A400002084190000E00100087F
:10458000000000000000000000000000000000002B
:10459000000000000000000000000000000000001B
:1045A000000000000000000000000000000000000B
:1045B00000000000000000000000000000000000FB
:1045C00000000000000000000000000000000000EB
:1045D0000000000000000000000000006766304797
:1045E00000000000000000000000000000000000CB
:1045F00000000000000000000000000000000000BB
:1046000000000000000000000000000000000000AA
:104610000000000001000000100000000000000089
:0446200000127A000A
:040000050800018965
:00000001FF
